{
  "address": "0x08738659070713B8a34C8F83e89B44F9B802Eb97",
  "abi": [
    {
      "inputs": [],
      "stateMutability": "nonpayable",
      "type": "constructor"
    },
    {
      "anonymous": false,
      "inputs": [
        {
          "indexed": true,
          "internalType": "address",
          "name": "owner",
          "type": "address"
        },
        {
          "indexed": true,
          "internalType": "address",
          "name": "approved",
          "type": "address"
        },
        {
          "indexed": true,
          "internalType": "uint256",
          "name": "tokenId",
          "type": "uint256"
        }
      ],
      "name": "Approval",
      "type": "event"
    },
    {
      "anonymous": false,
      "inputs": [
        {
          "indexed": true,
          "internalType": "address",
          "name": "owner",
          "type": "address"
        },
        {
          "indexed": true,
          "internalType": "address",
          "name": "operator",
          "type": "address"
        },
        {
          "indexed": false,
          "internalType": "bool",
          "name": "approved",
          "type": "bool"
        }
      ],
      "name": "ApprovalForAll",
      "type": "event"
    },
    {
      "anonymous": false,
      "inputs": [
        {
          "indexed": true,
          "internalType": "uint256",
          "name": "tokenId",
          "type": "uint256"
        }
      ],
      "name": "Cancel",
      "type": "event"
    },
    {
      "anonymous": false,
      "inputs": [
        {
          "indexed": true,
          "internalType": "address",
          "name": "owner",
          "type": "address"
        },
        {
          "indexed": true,
          "internalType": "uint256",
          "name": "tokenId",
          "type": "uint256"
        },
        {
          "indexed": true,
          "internalType": "bytes32",
          "name": "ref",
          "type": "bytes32"
        }
      ],
      "name": "Publish",
      "type": "event"
    },
    {
      "anonymous": false,
      "inputs": [
        {
          "indexed": true,
          "internalType": "address",
          "name": "from",
          "type": "address"
        },
        {
          "indexed": true,
          "internalType": "address",
          "name": "to",
          "type": "address"
        },
        {
          "indexed": true,
          "internalType": "uint256",
          "name": "tokenId",
          "type": "uint256"
        }
      ],
      "name": "Transfer",
      "type": "event"
    },
    {
      "inputs": [
        {
          "internalType": "address",
          "name": "to",
          "type": "address"
        },
        {
          "internalType": "uint256",
          "name": "tokenId",
          "type": "uint256"
        }
      ],
      "name": "approve",
      "outputs": [],
      "stateMutability": "nonpayable",
      "type": "function"
    },
    {
      "inputs": [
        {
          "internalType": "address",
          "name": "owner",
          "type": "address"
        }
      ],
      "name": "balanceOf",
      "outputs": [
        {
          "internalType": "uint256",
          "name": "",
          "type": "uint256"
        }
      ],
      "stateMutability": "view",
      "type": "function"
    },
    {
      "inputs": [
        {
          "internalType": "uint256",
          "name": "tokenId",
          "type": "uint256"
        }
      ],
      "name": "burn",
      "outputs": [],
      "stateMutability": "nonpayable",
      "type": "function"
    },
    {
      "inputs": [
        {
          "internalType": "bytes32",
          "name": "ref",
          "type": "bytes32"
        }
      ],
      "name": "decodeCid",
      "outputs": [
        {
          "internalType": "string",
          "name": "cid",
          "type": "string"
        }
      ],
      "stateMutability": "pure",
      "type": "function"
    },
    {
      "inputs": [
        {
          "internalType": "string",
          "name": "cid",
          "type": "string"
        }
      ],
      "name": "encodeCid",
      "outputs": [
        {
          "internalType": "bytes32",
          "name": "ref",
          "type": "bytes32"
        }
      ],
      "stateMutability": "pure",
      "type": "function"
    },
    {
      "inputs": [
        {
          "internalType": "uint256",
          "name": "tokenId",
          "type": "uint256"
        }
      ],
      "name": "getApproved",
      "outputs": [
        {
          "internalType": "address",
          "name": "",
          "type": "address"
        }
      ],
      "stateMutability": "view",
      "type": "function"
    },
    {
      "inputs": [
        {
          "internalType": "address",
          "name": "owner",
          "type": "address"
        },
        {
          "internalType": "address",
          "name": "operator",
          "type": "address"
        }
      ],
      "name": "isApprovedForAll",
      "outputs": [
        {
          "internalType": "bool",
          "name": "",
          "type": "bool"
        }
      ],
      "stateMutability": "view",
      "type": "function"
    },
    {
      "inputs": [
        {
          "internalType": "uint256",
          "name": "tokenId",
          "type": "uint256"
        },
        {
          "internalType": "bytes32",
          "name": "ref",
          "type": "bytes32"
        }
      ],
      "name": "mint",
      "outputs": [],
      "stateMutability": "nonpayable",
      "type": "function"
    },
    {
      "inputs": [],
      "name": "name",
      "outputs": [
        {
          "internalType": "string",
          "name": "",
          "type": "string"
        }
      ],
      "stateMutability": "view",
      "type": "function"
    },
    {
      "inputs": [
        {
          "internalType": "uint256",
          "name": "tokenId",
          "type": "uint256"
        }
      ],
      "name": "ownerOf",
      "outputs": [
        {
          "internalType": "address",
          "name": "",
          "type": "address"
        }
      ],
      "stateMutability": "view",
      "type": "function"
    },
    {
      "inputs": [
        {
          "internalType": "uint256",
          "name": "",
          "type": "uint256"
        }
      ],
      "name": "refs",
      "outputs": [
        {
          "internalType": "bytes32",
          "name": "",
          "type": "bytes32"
        }
      ],
      "stateMutability": "view",
      "type": "function"
    },
    {
      "inputs": [
        {
          "internalType": "address",
          "name": "from",
          "type": "address"
        },
        {
          "internalType": "address",
          "name": "to",
          "type": "address"
        },
        {
          "internalType": "uint256",
          "name": "tokenId",
          "type": "uint256"
        }
      ],
      "name": "safeTransferFrom",
      "outputs": [],
      "stateMutability": "nonpayable",
      "type": "function"
    },
    {
      "inputs": [
        {
          "internalType": "address",
          "name": "from",
          "type": "address"
        },
        {
          "internalType": "address",
          "name": "to",
          "type": "address"
        },
        {
          "internalType": "uint256",
          "name": "tokenId",
          "type": "uint256"
        },
        {
          "internalType": "bytes",
          "name": "data",
          "type": "bytes"
        }
      ],
      "name": "safeTransferFrom",
      "outputs": [],
      "stateMutability": "nonpayable",
      "type": "function"
    },
    {
      "inputs": [
        {
          "internalType": "address",
          "name": "operator",
          "type": "address"
        },
        {
          "internalType": "bool",
          "name": "approved",
          "type": "bool"
        }
      ],
      "name": "setApprovalForAll",
      "outputs": [],
      "stateMutability": "nonpayable",
      "type": "function"
    },
    {
      "inputs": [
        {
          "internalType": "bytes4",
          "name": "interfaceId",
          "type": "bytes4"
        }
      ],
      "name": "supportsInterface",
      "outputs": [
        {
          "internalType": "bool",
          "name": "",
          "type": "bool"
        }
      ],
      "stateMutability": "view",
      "type": "function"
    },
    {
      "inputs": [],
      "name": "symbol",
      "outputs": [
        {
          "internalType": "string",
          "name": "",
          "type": "string"
        }
      ],
      "stateMutability": "view",
      "type": "function"
    },
    {
      "inputs": [
        {
          "internalType": "uint256",
          "name": "tokenId",
          "type": "uint256"
        }
      ],
      "name": "tokenURI",
      "outputs": [
        {
          "internalType": "string",
          "name": "",
          "type": "string"
        }
      ],
      "stateMutability": "view",
      "type": "function"
    },
    {
      "inputs": [
        {
          "internalType": "address",
          "name": "from",
          "type": "address"
        },
        {
          "internalType": "address",
          "name": "to",
          "type": "address"
        },
        {
          "internalType": "uint256",
          "name": "tokenId",
          "type": "uint256"
        }
      ],
      "name": "transferFrom",
      "outputs": [],
      "stateMutability": "nonpayable",
      "type": "function"
    }
  ],
  "transactionHash": "0xd47b03d5704d87edff2393b48e64f29551f47f3f4c5f013c7a19cc14605198bb",
  "args": [],
  "numDeployments": 1,
  "solcInputHash": "21a26afb0a879a0bdd1496bc62e0da48",
  "bytecode": "0x608060405234801562000010575f80fd5b50604051806040016040528060068152602001652830b93a30b560d11b81525060405180604001604052806003815260200162282a2560e91b815250815f90816200005c919062000112565b5060016200006b828262000112565b505050620001de565b634e487b7160e01b5f52604160045260245ffd5b600181811c908216806200009d57607f821691505b602082108103620000bc57634e487b7160e01b5f52602260045260245ffd5b50919050565b601f8211156200010d57805f5260205f20601f840160051c81016020851015620000e95750805b601f840160051c820191505b818110156200010a575f8155600101620000f5565b50505b505050565b81516001600160401b038111156200012e576200012e62000074565b62000146816200013f845462000088565b84620000c2565b602080601f8311600181146200017c575f8415620001645750858301515b5f19600386901b1c1916600185901b178555620001d6565b5f85815260208120601f198616915b82811015620001ac578886015182559484019460019091019084016200018b565b5085821015620001ca57878501515f19600388901b60f8161c191681555b505060018460011b0185555b505050505050565b611b2080620001ec5f395ff3fe608060405234801561000f575f80fd5b5060043610610111575f3560e01c806370a082311161009e578063a377a3111161006e578063a377a3111461024c578063b88d4fde1461025f578063c87b56dd14610272578063e985e9c514610285578063eb0b6197146102c0575f80fd5b806370a08231146101f1578063845af0851461021257806395d89b4114610231578063a22cb46514610239575f80fd5b80631801fbe5116100e45780631801fbe51461019257806323b872dd146101a557806342842e0e146101b857806342966c68146101cb5780636352211e146101de575f80fd5b806301ffc9a71461011557806306fdde031461013d578063081812fc14610152578063095ea7b31461017d575b5f80fd5b6101286101233660046115f0565b6102d3565b60405190151581526020015b60405180910390f35b610145610324565b604051610134919061165f565b610165610160366004611671565b6103b3565b6040516001600160a01b039091168152602001610134565b61019061018b3660046116a3565b6103d8565b005b6101906101a03660046116cb565b6104f1565b6101906101b33660046116eb565b610545565b6101906101c63660046116eb565b610576565b6101906101d9366004611671565b610590565b6101656101ec366004611671565b6105c6565b6102046101ff366004611724565b610625565b604051908152602001610134565b610204610220366004611671565b60066020525f908152604090205481565b6101456106a9565b61019061024736600461173d565b6106b8565b61020461025a3660046117fc565b6106c7565b61019061026d366004611840565b6106d1565b610145610280366004611671565b610709565b6101286102933660046118b6565b6001600160a01b039182165f90815260056020908152604080832093909416825291909152205460ff1690565b6101456102ce366004611671565b610788565b5f6001600160e01b031982166380ac58cd60e01b148061030357506001600160e01b03198216635b5e139f60e01b145b8061031e57506301ffc9a760e01b6001600160e01b03198316145b92915050565b60605f8054610332906118e7565b80601f016020809104026020016040519081016040528092919081815260200182805461035e906118e7565b80156103a95780601f10610380576101008083540402835291602001916103a9565b820191905f5260205f20905b81548152906001019060200180831161038c57829003601f168201915b5050505050905090565b5f6103bd82610793565b505f908152600460205260409020546001600160a01b031690565b5f6103e2826105c6565b9050806001600160a01b0316836001600160a01b0316036104545760405162461bcd60e51b815260206004820152602160248201527f4552433732313a20617070726f76616c20746f2063757272656e74206f776e656044820152603960f91b60648201526084015b60405180910390fd5b336001600160a01b038216148061047057506104708133610293565b6104e25760405162461bcd60e51b815260206004820152603d60248201527f4552433732313a20617070726f76652063616c6c6572206973206e6f7420746f60448201527f6b656e206f776e6572206f7220617070726f76656420666f7220616c6c000000606482015260840161044b565b6104ec83836107f4565b505050565b336104fc8184610861565b5f8381526006602052604080822084905551839185916001600160a01b038516917f85ee17d49f40f6c7692d72a37dea84aa69cccd42e691bc7d86418aded69dccb391a4505050565b61054f338261087a565b61056b5760405162461bcd60e51b815260040161044b9061191f565b6104ec8383836108f7565b6104ec83838360405180602001604052805f8152506106d1565b61059981610a59565b60405181907f8bf30e7ff26833413be5f69e1d373744864d600b664204b4a2f9844a8eedb9ed905f90a250565b5f818152600260205260408120546001600160a01b03168061031e5760405162461bcd60e51b8152602060048201526018602482015277115490cdcc8c4e881a5b9d985b1a59081d1bdad95b88125160421b604482015260640161044b565b5f6001600160a01b03821661068e5760405162461bcd60e51b815260206004820152602960248201527f4552433732313a2061646472657373207a65726f206973206e6f7420612076616044820152683634b21037bbb732b960b91b606482015260840161044b565b506001600160a01b03165f9081526003602052604090205490565b606060018054610332906118e7565b6106c3338383610aeb565b5050565b5f61031e82610bb8565b6106db338361087a565b6106f75760405162461bcd60e51b815260040161044b9061191f565b61070384848484610bce565b50505050565b606061071482610793565b60408051808201909152601881527f68747470733a2f2f70617274616a2e6574682e6c696d6f2f0000000000000000602082015260408051602081018590520160408051601f1981840301815290829052610772929160200161196c565b6040516020818303038152906040529050919050565b606061031e82610c01565b5f818152600260205260409020546001600160a01b03166107f15760405162461bcd60e51b8152602060048201526018602482015277115490cdcc8c4e881a5b9d985b1a59081d1bdad95b88125160421b604482015260640161044b565b50565b5f81815260046020526040902080546001600160a01b0319166001600160a01b0384169081179091558190610828826105c6565b6001600160a01b03167f8c5be1e5ebec7d5bd14f71427d1e84f3dd0314c0f7b2291e5b200ac8c7c3b92560405160405180910390a45050565b6106c3828260405180602001604052805f815250610c33565b5f80610885836105c6565b9050806001600160a01b0316846001600160a01b031614806108cb57506001600160a01b038082165f9081526005602090815260408083209388168352929052205460ff165b806108ef5750836001600160a01b03166108e4846103b3565b6001600160a01b0316145b949350505050565b826001600160a01b031661090a826105c6565b6001600160a01b0316146109305760405162461bcd60e51b815260040161044b9061199a565b6001600160a01b0382166109925760405162461bcd60e51b8152602060048201526024808201527f4552433732313a207472616e7366657220746f20746865207a65726f206164646044820152637265737360e01b606482015260840161044b565b826001600160a01b03166109a5826105c6565b6001600160a01b0316146109cb5760405162461bcd60e51b815260040161044b9061199a565b5f81815260046020908152604080832080546001600160a01b03199081169091556001600160a01b038781168086526003855283862080545f1901905590871680865283862080546001019055868652600290945282852080549092168417909155905184937fddf252ad1be2c89b69c2b068fc378daa952ba7f163c4a11628f55a4df523b3ef91a4505050565b5f610a63826105c6565b9050610a6e826105c6565b5f83815260046020908152604080832080546001600160a01b03199081169091556001600160a01b0385168085526003845282852080545f190190558785526002909352818420805490911690555192935084927fddf252ad1be2c89b69c2b068fc378daa952ba7f163c4a11628f55a4df523b3ef908390a45050565b816001600160a01b0316836001600160a01b031603610b4c5760405162461bcd60e51b815260206004820152601960248201527f4552433732313a20617070726f766520746f2063616c6c657200000000000000604482015260640161044b565b6001600160a01b038381165f81815260056020908152604080832094871680845294825291829020805460ff191686151590811790915591519182527f17307eab39ab6107e8899845ad3d59bd9653f200f220920489ca2b5937696c31910160405180910390a3505050565b5f80610bc383610c65565b602201519392505050565b610bd98484846108f7565b610be584848484610fa2565b6107035760405162461bcd60e51b815260040161044b906119df565b604051609160f51b60208201526022810182905260609061031e9060420160405160208183030381529060405261109f565b610c3d8383611345565b610c495f848484610fa2565b6104ec5760405162461bcd60e51b815260040161044b906119df565b80516060906031905f805b8281108015610c97575083868281518110610c8d57610c8d611a31565b016020015160f81c145b15610ca85760019182019101610c70565b505f8080806117e361209f8702046001016002026001600160401b03811115610cd357610cd3611776565b6040519080825280601f01601f191660200182016040528015610cfd576020820181803683370190505b5090505f600460038801046001600160401b03811115610d1f57610d1f611776565b604051908082528060200260200182016040528015610d48578160200160208202803683370190505b5090505f5b8a51811015610e65575f8b8281518110610d6957610d69611a31565b602001015160f81c60f81b9050610d986040518060600160405280603a8152602001611ab1603a9139826114cd565b909650945084610de15760405162461bcd60e51b81526020600482015260146024820152731a5b9d985b1a590818985cd94d4e08191a59da5d60621b604482015260640161044b565b82515f19015b5f8112610e5b5786848281518110610e0157610e01611a31565b602002602001015163ffffffff16603a026001600160401b0316019750602088901c96508763ffffffff16848281518110610e3e57610e3e611a31565b63ffffffff909216602092830291909101909101525f1901610de7565b5050600101610d4d565b50600860038816026001600160401b0381165f03610e81575060205b600719015f805b8351811015610f29575b6020836001600160401b03161015610f1d57826001600160401b0316848281518110610ec057610ec0611a31565b602002602001015163ffffffff16901c60f81b858381518110610ee557610ee5611a31565b60200101906001600160f81b03191690815f1a90535060019091019060086001600160401b03841610610f1d57600883039250610e92565b60189250600101610e88565b50875b8451811015610f86575f60f81b858281518110610f4b57610f4b611a31565b01602001516001600160f81b0319161115610f7e57610f6d858a83038461152d565b9d9c50505050505050505050505050565b600101610f2c565b50610f92845f8361152d565b9c9b505050505050505050505050565b5f6001600160a01b0384163b1561109457604051630a85bd0160e11b81526001600160a01b0385169063150b7a0290610fe5903390899088908890600401611a59565b6020604051808303815f875af192505050801561101f575060408051601f3d908101601f1916820190925261101c91810190611a95565b60015b61107a573d80801561104c576040519150601f19603f3d011682016040523d82523d5f602084013e611051565b606091505b5080515f036110725760405162461bcd60e51b815260040161044b906119df565b805181602001fd5b6001600160e01b031916630a85bd0160e11b1490506108ef565b506001949350505050565b80516060905f5b81811080156110d357508381815181106110c2576110c2611a31565b01602001516001600160f81b031916155b156110e0576001016110a6565b6117e361209f8284030204810160010191505f826001600160401b0381111561110b5761110b611776565b6040519080825280601f01601f191660200182016040528015611135576020820181803683370190505b5090505f805f198501815b88518110156112175760018703925088818151811061116157611161611a31565b016020015160f81c93505b8183138061117f575063ffffffff841615155b1561120c5784838151811061119657611196611a31565b602001015160f81c60f81b60f81c60ff166101000261ffff1684019350603a8463ffffffff16816111c9576111c9611a45565b0660f81b8584815181106111df576111df611a31565b60200101906001600160f81b03191690815f1a905350603a63ffffffff85160493505f199092019161116c565b829150600101611140565b50845b8681108015611247575084818151811061123657611236611a31565b01602001516001600160f81b031916155b156112545760010161121a565b85810385510396505f876001600160401b0381111561127557611275611776565b6040519080825280601f01601f19166020018201604052801561129f576020820181803683370190505b5090505f5b88811015611337575f888483010390506040518060600160405280603a8152602001611ab1603a91398882815181106112df576112df611a31565b0160200151815160f89190911c9081106112fb576112fb611a31565b602001015160f81c60f81b83838151811061131857611318611a31565b60200101906001600160f81b03191690815f1a905350506001016112a4565b509998505050505050505050565b6001600160a01b03821661139b5760405162461bcd60e51b815260206004820181905260248201527f4552433732313a206d696e7420746f20746865207a65726f2061646472657373604482015260640161044b565b5f818152600260205260409020546001600160a01b0316156113ff5760405162461bcd60e51b815260206004820152601c60248201527f4552433732313a20746f6b656e20616c7265616479206d696e74656400000000604482015260640161044b565b5f818152600260205260409020546001600160a01b0316156114635760405162461bcd60e51b815260206004820152601c60248201527f4552433732313a20746f6b656e20616c7265616479206d696e74656400000000604482015260640161044b565b6001600160a01b0382165f81815260036020908152604080832080546001019055848352600290915280822080546001600160a01b0319168417905551839291907fddf252ad1be2c89b69c2b068fc378daa952ba7f163c4a11628f55a4df523b3ef908290a45050565b5f805f5b845181101561151e57836001600160f81b0319168582815181106114f7576114f7611a31565b01602001516001600160f81b0319160361151657915060019050611526565b6001016114d1565b505f80915091505b9250929050565b60605f8383036001600160401b0381111561154a5761154a611776565b6040519080825280601f01601f191660200182016040528015611574576020820181803683370190505b5090505f5b8484038110156115d257858582018151811061159757611597611a31565b602001015160f81c60f81b8282815181106115b4576115b4611a31565b60200101906001600160f81b03191690815f1a905350600101611579565b50949350505050565b6001600160e01b0319811681146107f1575f80fd5b5f60208284031215611600575f80fd5b813561160b816115db565b9392505050565b5f5b8381101561162c578181015183820152602001611614565b50505f910152565b5f815180845261164b816020860160208601611612565b601f01601f19169290920160200192915050565b602081525f61160b6020830184611634565b5f60208284031215611681575f80fd5b5035919050565b80356001600160a01b038116811461169e575f80fd5b919050565b5f80604083850312156116b4575f80fd5b6116bd83611688565b946020939093013593505050565b5f80604083850312156116dc575f80fd5b50508035926020909101359150565b5f805f606084860312156116fd575f80fd5b61170684611688565b925061171460208501611688565b9150604084013590509250925092565b5f60208284031215611734575f80fd5b61160b82611688565b5f806040838503121561174e575f80fd5b61175783611688565b91506020830135801515811461176b575f80fd5b809150509250929050565b634e487b7160e01b5f52604160045260245ffd5b5f6001600160401b03808411156117a3576117a3611776565b604051601f8501601f19908116603f011681019082821181831017156117cb576117cb611776565b816040528093508581528686860111156117e3575f80fd5b858560208301375f602087830101525050509392505050565b5f6020828403121561180c575f80fd5b81356001600160401b03811115611821575f80fd5b8201601f81018413611831575f80fd5b6108ef8482356020840161178a565b5f805f8060808587031215611853575f80fd5b61185c85611688565b935061186a60208601611688565b92506040850135915060608501356001600160401b0381111561188b575f80fd5b8501601f8101871361189b575f80fd5b6118aa8782356020840161178a565b91505092959194509250565b5f80604083850312156118c7575f80fd5b6118d083611688565b91506118de60208401611688565b90509250929050565b600181811c908216806118fb57607f821691505b60208210810361191957634e487b7160e01b5f52602260045260245ffd5b50919050565b6020808252602d908201527f4552433732313a2063616c6c6572206973206e6f7420746f6b656e206f776e6560408201526c1c881bdc88185c1c1c9bdd9959609a1b606082015260800190565b5f835161197d818460208801611612565b835190830190611991818360208801611612565b01949350505050565b60208082526025908201527f4552433732313a207472616e736665722066726f6d20696e636f72726563742060408201526437bbb732b960d91b606082015260800190565b60208082526032908201527f4552433732313a207472616e7366657220746f206e6f6e20455243373231526560408201527131b2b4bb32b91034b6b83632b6b2b73a32b960711b606082015260800190565b634e487b7160e01b5f52603260045260245ffd5b634e487b7160e01b5f52601260045260245ffd5b6001600160a01b03858116825284166020820152604081018390526080606082018190525f90611a8b90830184611634565b9695505050505050565b5f60208284031215611aa5575f80fd5b815161160b816115db56fe31323334353637383941424344454647484a4b4c4d4e505152535455565758595a6162636465666768696a6b6d6e6f707172737475767778797aa264697066735822122084b5dc0b5ecd13a41f6d747be72794f86ea4b1fc9256506ce648cf4d4fa192d064736f6c63430008170033",
  "devdoc": {
    "events": {
      "Approval(address,address,uint256)": {
        "details": "Emitted when `owner` enables `approved` to manage the `tokenId` token."
      },
      "ApprovalForAll(address,address,bool)": {
        "details": "Emitted when `owner` enables or disables (`approved`) `operator` to manage all of its assets."
      },
      "Transfer(address,address,uint256)": {
        "details": "Emitted when `tokenId` token is transferred from `from` to `to`."
      }
    },
    "kind": "dev",
    "methods": {
      "approve(address,uint256)": {
        "details": "See {IERC721-approve}."
      },
      "balanceOf(address)": {
        "details": "See {IERC721-balanceOf}."
      },
      "getApproved(uint256)": {
        "details": "See {IERC721-getApproved}."
      },
      "isApprovedForAll(address,address)": {
        "details": "See {IERC721-isApprovedForAll}."
      },
      "name()": {
        "details": "See {IERC721Metadata-name}."
      },
      "ownerOf(uint256)": {
        "details": "See {IERC721-ownerOf}."
      },
      "safeTransferFrom(address,address,uint256)": {
        "details": "See {IERC721-safeTransferFrom}."
      },
      "safeTransferFrom(address,address,uint256,bytes)": {
        "details": "See {IERC721-safeTransferFrom}."
      },
      "setApprovalForAll(address,bool)": {
        "details": "See {IERC721-setApprovalForAll}."
      },
      "supportsInterface(bytes4)": {
        "details": "See {IERC165-supportsInterface}."
      },
      "symbol()": {
        "details": "See {IERC721Metadata-symbol}."
      },
      "tokenURI(uint256)": {
        "details": "See {IERC721Metadata-tokenURI}."
      },
      "transferFrom(address,address,uint256)": {
        "details": "See {IERC721-transferFrom}."
      }
    },
    "version": 1
  },
  "userdoc": {
    "kind": "user",
    "methods": {},
    "version": 1
  },
  "storageLayout": {
    "storage": [
      {
        "astId": 25,
        "contract": "contracts/Partaj.sol:Partaj",
        "label": "_name",
        "offset": 0,
        "slot": "0",
        "type": "t_string_storage"
      },
      {
        "astId": 27,
        "contract": "contracts/Partaj.sol:Partaj",
        "label": "_symbol",
        "offset": 0,
        "slot": "1",
        "type": "t_string_storage"
      },
      {
        "astId": 31,
        "contract": "contracts/Partaj.sol:Partaj",
        "label": "_owners",
        "offset": 0,
        "slot": "2",
        "type": "t_mapping(t_uint256,t_address)"
      },
      {
        "astId": 35,
        "contract": "contracts/Partaj.sol:Partaj",
        "label": "_balances",
        "offset": 0,
        "slot": "3",
        "type": "t_mapping(t_address,t_uint256)"
      },
      {
        "astId": 39,
        "contract": "contracts/Partaj.sol:Partaj",
        "label": "_tokenApprovals",
        "offset": 0,
        "slot": "4",
        "type": "t_mapping(t_uint256,t_address)"
      },
      {
        "astId": 45,
        "contract": "contracts/Partaj.sol:Partaj",
        "label": "_operatorApprovals",
        "offset": 0,
        "slot": "5",
        "type": "t_mapping(t_address,t_mapping(t_address,t_bool))"
      },
      {
        "astId": 2687,
        "contract": "contracts/Partaj.sol:Partaj",
        "label": "refs",
        "offset": 0,
        "slot": "6",
        "type": "t_mapping(t_uint256,t_bytes32)"
      }
    ],
    "types": {
      "t_address": {
        "encoding": "inplace",
        "label": "address",
        "numberOfBytes": "20"
      },
      "t_bool": {
        "encoding": "inplace",
        "label": "bool",
        "numberOfBytes": "1"
      },
      "t_bytes32": {
        "encoding": "inplace",
        "label": "bytes32",
        "numberOfBytes": "32"
      },
      "t_mapping(t_address,t_bool)": {
        "encoding": "mapping",
        "key": "t_address",
        "label": "mapping(address => bool)",
        "numberOfBytes": "32",
        "value": "t_bool"
      },
      "t_mapping(t_address,t_mapping(t_address,t_bool))": {
        "encoding": "mapping",
        "key": "t_address",
        "label": "mapping(address => mapping(address => bool))",
        "numberOfBytes": "32",
        "value": "t_mapping(t_address,t_bool)"
      },
      "t_mapping(t_address,t_uint256)": {
        "encoding": "mapping",
        "key": "t_address",
        "label": "mapping(address => uint256)",
        "numberOfBytes": "32",
        "value": "t_uint256"
      },
      "t_mapping(t_uint256,t_address)": {
        "encoding": "mapping",
        "key": "t_uint256",
        "label": "mapping(uint256 => address)",
        "numberOfBytes": "32",
        "value": "t_address"
      },
      "t_mapping(t_uint256,t_bytes32)": {
        "encoding": "mapping",
        "key": "t_uint256",
        "label": "mapping(uint256 => bytes32)",
        "numberOfBytes": "32",
        "value": "t_bytes32"
      },
      "t_string_storage": {
        "encoding": "bytes",
        "label": "string",
        "numberOfBytes": "32"
      },
      "t_uint256": {
        "encoding": "inplace",
        "label": "uint256",
        "numberOfBytes": "32"
      }
    }
  }
}